:02000002B0004C
:1040000000400B00BE970B00000006000C000502EC
:084010000401B41400000000DB
:0440180060850B00B4
:10401C0010F8012B11F8013B012A28BF9A42F7D066
:10402C00D01A7047034613F8012B002AFBD1181A3B
:10403C000138704709480A49884208B505D0094A31
:10404C00824202D0121A04F001F90748074A0021F3
:10405C00121A04F023F9014808BD00BF60E50320E3
:10406C0024970B00CCE50320CCE50320F0E70320DC
:10407C0070B5074E074C03F08BFEA41BA40800255B
:10408C00AC4200D170BD56F8043B98470135F7E7B8
:10409C00DC960B0000970B0000F0C8B808B500F0D8
:1040AC001FF8BDE8084003F02BBE01F031BE01F053
:1040BC002FBE01F035BE000008B5034A03490C20A1
:1040CC0001F082FDFEE700BFD5580B0074850B0094
:1040DC000078B0FA80F040097047012303707047F4
:1040EC0010B51F4C1F488AB001F019FB23786BB137
:1040FC0002F0BAF902F0AEFDFF2100220846227050
:10410C0003F0DEFA41F2883001F042FE02F0ACF925
:10411C0002F012FA0246D8B10021FF22084603F041
:10412C00CFFA114901A803F0E2FB039A05A901A8F3
:10413C000023013203F038FC039A0C4800230132AF
:10414C0005A902F06FF801A803F086FB0AB010BDB8
:10415C00FF2108460AB0BDE8104003F0B1BA00BF19
:10416C0028E603202CE6032089850B00A4E6032017
:10417C0010B5074C204600F007FF0121204600F047
:10418C004AFD00224FF00113C4E9042310BD00BF07
:10419C002CE603202DE9F043DFF88C901E4F85B000
:1041AC0004464618A64233D00A2214F8011B68466E
:1041BC0003F0E8FB6946484603F0CAFB684603F087
:1041CC004BFB484603F008FC386003F0D7FC3D6815
:1041DC00002D80460EDA2D2103F004FA69420A22E2
:1041EC00404603F00EFA3B68302B05D10B4B0122F5
:1041FC001A70D7E72946F2E7312BD3D1FFF7B8FF76
:10420C000749084803F0EAF9064801F02BF9C9E719
:10421C0005B0BDE8F08300BF24E6032028E60320A8
:10422C0094850B002CE60320CCE5032070B53248B6
:10423C00324C90B001F04AFAFFF79AFF30492E4801
:10424C0003F0CCF92C4801F00DF9012003F028FA09
:10425C0002F00AF902F052F902F006F9294A014675
:10426C000BA802F0B1FE0BA802F003FA02F0FCF866
:10427C00254A01460BA802F0A7FE0BA802F0F9F99B
:10428C0003A802F02CFB0FCC06AD0FC506AD0FCD6D
:10429C0026680BAC0FC40BA8266001F0E7FE0446A1
:1042AC000BA80CBB01F0FEFE0094ADF80A00022333
:1042BC000DF10A02032103A802F006FB02F0D4F868
:1042CC00002203A902F079F902F0CEF80F4902F0AE
:1042DC001CF903F053FC4FF4165103F043FC039804
:1042EC0001F01EFD10B070BD01F0DEFE0023009346
:1042FC00024610230721DEE72CE60320E8E5032025
:10430C00838B0B00A4E603209CE60320A9850B00FD
:10431C002DE9F047414B424A9A60002498B0C3E91A
:10432C000044032001F060FC3E4D3F4E3F4F2146C0
:10433C00012001F069FC07213D4801F099F93D4944
:10434C00284601F031FF3C49304601F02DFF3B4936
:10435C00384601F029FF0FCE0DF1100CA846ACE841
:10436C000F00B8E80F00D6F800A0CCF800A009AEFA
:10437C000FC60DF1100CBCE80F00D8F80090C6F871
:10438C0000900EAE0FC6DFF8CCE0C6F800A00DF121
:10439C00240CCEE90044BCE80F0013AE0FC6284B2A
:1043AC00C6F8009013AE019370460EAB25490294EB
:1043BC0000964FF0040202F0DDFC0FCF0DF1100C53
:1043CC00ACE80F000FCDD7F800E0D8F80080CCF89F
:1043DC0000E009AF0FC7C7F8008004AF0FCF0EADD8
:1043EC000FC5DFF874C0C5F800E009AFCCE9004494
:1043FC000FCF35460FC56046C5F8008012490096B0
:10440C00CDE901440EAB4FF0100202F0B3FC0F49A2
:10441C000F4818B0BDE8F04703F069BADCE503209B
:10442C000000FFFFE8E50320FCE5032010E6032075
:10443C002CE60320AE850B00D3850B00F8850B0012
:10444C00A1410B001D860B0020860B00848B0B00FA
:10445C00CCE503209CE60320A4E603202DE9F04FD5
:10446C0085B01F46BDF93880BDF83C30A8EB020979
:10447C00A7EB010AB9F1000FB8BFC9F10009BAF1F5
:10448C00000FB8BFCAF1000AD14583460C46154649
:10449C0004DD3A462C4647460D469046BC4205DDA7
:1044AC002A464546904622463C4617463E1BB2B22B
:1044BC000092A8EB050282EAE271A1EBE271C6F36D
:1044CC00C03202FA86F64545B4BF01224FF0FF32E6
:1044DC00019176100292BC421CDCDBF800200393A5
:1044EC00D145D2F81880C7BF294622462A46214614
:1044FC005846C047019A039BB61AB1B236B2002E89
:10450C0005DA029A1544009A56182DB236B20134C7
:10451C0024B2E0E705B0BDE8F08F704710B4046832
:10452C002469A4465DF8044B604730B40468BDF8B8
:10453C0008500295A46BA44630BC604730B40468A4
:10454C00BDF808500295E46BA44630BC604770B4CB
:10455C00BDF90C50BDF810600468CDE90356246C0D
:10456C00A44670BC60472DE9F3411C460368BDF8B6
:10457C0020805B6905461646013C34440F4624B244
:10458C0098472B68CDF8048000949C6A28463B46DB
:10459C0032463946A0472B68DB6A284602B0BDE894
:1045AC00F04118472DE9F3411D460368BDF8208002
:1045BC005B69044617460E469847CDE90078226899
:1045CC006B1E3344956A20461BB23A463146A847C7
:1045DC002368DB6A204602B0BDE8F04118472DE99C
:1045EC00F3471E460368BDF928905B69BDF82C8023
:1045FC000C460546174698472644B4422B680BDAFE
:10460C00CDF80080D3F820A021464B463A462846E8
:10461C000134D04724B2F0E7DB6A284602B0BDE88B
:10462C00F047184713B502680191B0F90E100091CC
:10463C00146CB0F90C3000221146A04702B010BD2A
:10464C002DE9F74399421646BDF92870BDF82C9018
:10465C00026880460D461C4613D1BE42C8BF334685
:10466C00CDF82890C4BF3E461F467B1C946B9B1B09
:10467C001BB2324629464046A44603B0BDE8F0437F
:10468C006047BE420AD19942C2BF0B4625461C4622
:10469C00631CCDF82890D46B5B1BE9E753699847F2
:1046AC00CDE90079D8F8003040469F6A324623465F
:1046BC002946B847D8F80030DB6A404603B0BDE85D
:1046CC00F04318472DE9F3471D460368BDF82C80CD
:1046DC005B69BDF9289004460F4616469847236837
:1046EC00CDF80080D3F824A032462B46394620461C
:1046FC00D0472368CDF8008009F1FF323244D3F85B
:10470C0024A039462B46204612B2D0472368CDF858
:10471C000080D3F820A032464B4639462046D0477D
:10472C006B1ED9192368CDF800801D6A20464B46B4
:10473C00324609B2A8472368DB6A204602B0BDE8BE
:10474C00F0471847704701F00303B0F90A2083764D
:10475C00C907B0F9083059BF8381C2818281C381F6
:10476C007047000030B54281C281074A074D018174
:10477C00002481814FF0FF31C0E9051244600560CF
:10478C0004610477046230BD010100012C8B0B0025
:10479C002DE9F04F89B0CDE902120268BDF94880CD
:1047AC000493BDF94C3052690593BDF850A00446F2
:1047BC00904718F107024FF0000648BF08F10E02AF
:1047CC004FEAE20B01963546039B019ABDF90410A2
:1047DC009A18059B8B4212B227DD049B33444FF091
:1047EC00000906930FFA89F080451FFA89F117DD4D
:1047FC004F0705BF069BC0106D001D5C18BFEDB2C6
:10480C002B060AD5029B206807921944836909B2CA
:10481C001F4620465346B847079A09F10109E1E7BC
:10482C00019B013301935E44CEE72368DB6A20468B
:10483C0009B0BDE8F04F18472DE9F04F2DED028B74
:10484C0091B01646026ABDF874809DF878509DF8B8
:10485C007C4003911F46BDF8703004938346002AB8
:10486C0040F0C580B0F90C308B4240F34C81B0F96C
:10487C000E30B34240F34781062313FB0513002B84
:10488C0040F3418106EBC403002B40F33C81037FD2
:10489C001BB9AF2F84BF0137FFB2DBF8003058468D
:1048AC005B6998470522099200220592984A07EB0A
:1048BC008703D3180C93B3B20693059A0C9B9B5C9D
:1048CC000793ABB20B93BDF80C300893039B02FB20
:1048DC0005F919FA83F90FFA89F308EE103A08234F
:1048EC000A93039B02EB030A4FF000090FFA8AFAB2
:1048FC00079ADBF80030D20752D5012D1FFA89F246
:10490C003ED1012C3CD19B6906991F46049B0A445D
:10491C0012B251465846B84709F101034FFA83F9D0
:10492C00079B5B0807930A9B013B13F0FF030A9359
:10493C00DED1059F01377BB20593099B013B13F038
:10494C00FF030993B9D1049B43450FD0012DDBF82C
:10495C0000303BD1012C39D10899CDF800800531BC
:10496C001C6A3246082309B25846A047DBF80030CF
:10497C00DB6A584611B0BDEC028BBDE8F04F18470E
:10498C00069914FB02F20A44049901910094DB6924
:10499C0018EE101A1F4612B22B465846B847BBE702
:1049AC00049A4245B8D0012D1FFA89F207D1012C87
:1049BC0005D19B6906991F460A444346A8E7069908
:1049CC00CDF8048014FB02F20A44DFE70B9ACDF811
:1049DC00048002EB8201089AE4000A441146009418
:1049EC00DC6932462B4609B25846A047BEE7137A1B
:1049FC00516812680B92FF1AFFB201EBC70331F832
:104A0C00372006929A780992DA780C92012D93F954
:104A1C00052093F906A00A9201D8012C57D9BDF9AB
:104A2C00283008930FFA8AF30793DBF800305846C6
:104A3C005B699847B3B24FF000080E931AFA86F3ED
:104A4C00C14647460F930C9B9F428FD2079B0E9AF1
:104A5C003B4403FB0423002205920F9A1BB202EB8A
:104A6C00070A08EE103A0FFA8AFA4346099A059992
:104A7C00914241D25A1CD2B25B070D9207D1069BD0
:104A8C0006990B9A01339BB212F80190069319F018
:104A9C00800F12D0012DDBF80030BDF80C101AD1AC
:104AAC00012C18D10A9A9B691144059A11441E468F
:104ABC005246049B09B25846B047059E0136F3B2E4
:104ACC004FEA490905935FFA89F90D9BCEE700235C
:104ADC00CDE90733A9E70598089A024402FB0511B2
:104AEC00049ACDE90042DB6918EE102A1E4609B281
:104AFC002B465846B047E0E7099B013798445FFACC
:104B0C0088F8FFB29FE711B0BDEC028BBDE8F08FC7
:104B1C0023860B00F0B5026A85B004460B46002ACA
:104B2C0034D10A2908D1438A0282427E03EBC203A4
:104B3C006382012005B0F0BD0D29FAD0E17E007E24
:104B4C00657E71B1B4F91060062111FB0061B4F9F6
:104B5C000C60B142C1BFB4F91210228201EBC50244
:104B6C006282E28A0192A28A0092CDE90205B4F92E
:104B7C001220B4F910102046FFF75EFE237E228A25
:104B8C0003EB430302EB43032382D2E70A2907D149
:104B9C0000230382417E927A438A01FB0233C7E7EA
:104BAC000D29C6D0157AA942C3D3517A9942C0D3E4
:104BBC0051685D1BEDB201EBC505A87828B3E97807
:104BCC0019B3E17E267E677E91B195F905100844F4
:104BDC00B4F9101006FB0011B4F90C00814207DD8A
:104BEC0000202082B4F91210927A02FB0712628222
:104BFC00E28A0192A28A0092CDE90267B4F91220EE
:104C0C00B4F910102046FFF717FE2979227E238A6B
:104C1C0001FB0233B8E7012938BF01210176417647
:104C2C007047704710B510210446FFF742FA204632
:104C3C0010BD0EB403B503AB002153F8042B019344
:104C4C0002F0FDFC02B05DF804EB03B0704700000D
:104C5C0073B5044608462279A36832B1A3B90B494F
:104C6C0002B0BDE8704002F0B9BC094A267B094D80
:104C7C000949647B012E18BF2946CDE90014074968
:104C8C00FFF7D7FF02B070BD054AEFE78D8B0B0025
:104C9C00848B0B00898B0B00858B0B00A38B0B007B
:104CAC007C8B0B0010B5044B03600446C06A08B142
:104CBC0001F036F8204610BD7C900B0010B5044670
:104CCC00FFF7F0FF20465021FFF7F3F9204610BD07
:104CDC00002910B54BDBB0F90C408C4247DD002AA3
:104CEC0045DBB0F90E40944241DD847E022C1FD08E
:104CFC00032C26D0012C04D10489D24314440A4637
:104D0C0021B2012B23D0022B32D083BB002A1346B5
:104D1C000489C06AB8BFD31DDB1013FB041102F069
:104D2C00070201239340425C22EA030242541EE034
:104D3C000489013C611A4489D243224409B212B25B
:104D4C00DFE74489013C641A114622B2D9E7002AF4
:104D5C0004891346B8BFD31DDB1013FB0411C36ABF
:104D6C0002F0070001228240585C02435A5410BDE5
:104D7C00002A13460489C06AB8BFD31DDB1013FB8D
:104D8C00041102F00702012303FA02F2435C5A40B9
:104D9C00CCE7000070B504461D460026FFF7E2FC88
:104DAC00114B2360666215B903F0BAF80546FF2370
:104DBC0084F8333084F836309DF9103084F837306D
:104DCC000A4BA363012384F83C30059BA3644FF684
:104DDC00FF72069BA286C4E90A562664A4F84460B6
:104DEC00E364204670BD00BF7C900B00C88B0B00A9
:104DFC00F8B50446806A0D4690B194F9301002F073
:104E0C0089FAA06A036800219B689847A06A036826
:104E1C0029469B689847A06ABDE8F84002F081BA21
:104E2C0094F93530014698B203F033F8606A20B13A
:104E3C002946BDE8F84002F009BD0826802794F900
:104E4C00330005EA070180B203F023F894F934002B
:104E5C00012180B203F01DF894F93400002180B2D6
:104E6C0003F017F8013E4FEA5707E8D1F8BD38B503
:104E7C000446806A0D4680B1A16C02F03DFA002D0B
:104E8C00204614BFA721A621FFF7B2FFA06A88B164
:104E9C00E16CBDE8384002F02FBA606A18B104F139
:104EAC00380102F065FC94F93600002180B202F062
:104EBC00F0FFE4E794F93600012180B202F0E9FF3B
:104ECC00606A18B1BDE8384002F038BC38BD2DE935
:104EDC00F8430446806A0D468F1840B394F930109D
:104EEC0002F018FAA06A036800219B689847012613
:104EFC00AF42A06A17D01F2E0CD902F012FA94F907
:104F0C003010A06A02F006FAA06A036800219B68C0
:104F1C0098470126A06A15F8011B036801369B68A7
:104F2C009847F6B2E4E7BDE8F84302F0FAB994F911
:104F3C003530014698B202F0ACFFBD4222D0606A17
:104F4C0015F8019B18B1494602F080FCF5E70826DC
:104F5C004FF0800894F9330009EA080180B202F09E
:104F6C0098FF94F93400012180B202F092FF94F979
:104F7C003400002180B202F08CFF013E4FEA580849
:104F8C00E8D1DAE7BDE8F883B0F90A30DA1D48BF9A
:104F9C0003F10E02B0F90830C06AD2105A43002156
:104FAC0003F07CB92DE9FF411E46C36A9DF82880A9
:104FBC0004460F461546C3B12046FFF7E5FFB4F98A
:104FCC000A00B4F90810202821DC20230122203803
:104FDC00CDE9013200EBD07073237339009301EBF0
:104FEC00D171894B40F34F0221E0B0F90A30D81D42
:104FFC0048BF03F10E00B4F90830C010584300F05C
:10500C0087FEE0620028D7D104B0BDE8F0814038BB
:10501C00C0F3C03202FA80F240230120CDE9013006
:10502C00522352390093794B01EBD1715210204627
:10503C0041F34F01FFF7ACFBA06A84F831700028F4
:10504C0078D0002D74D1B4F90A30202B0CBF3C253C
:10505C003D2584F83050B8F1000F01D002F050F922
:10506C00FEB194F9370000281BDB012180B202F05D
:10507C00FFFE94F93700012180B202F00AFF0120F3
:10508C0000F086FE94F93700002180B202F001FF97
:10509C000A2000F07DFE94F93700012180B202F065
:1050AC00F8FEA06A002874D0A16C02F025F9042245
:1050BC0057492046FFF70BFF61890139C9B22046D9
:1050CC00FFF796FE534904222046FFF700FF94F9A0
:1050DC003130012B0CBF102114212046FFF788FE24
:1050EC0004224D492046FFF7F2FEA3684B4A934237
:1050FC005CD14B4904222046FFF7E9FED92120461A
:10510C00FFF776FE94F93130012B0CBF2221F121EF
:10511C002046FFF76DFE204642490622FFF7D7FED8
:10512C00A06A002863D0E16C02F0E6F801206BE77E
:10513C006DB28EE794F93500012180B202F098FE31
:10514C0094F93600012180B202F092FE94F93600F7
:10515C00012180B202F09DFE656A3DB1B8F1000FED
:10516C003FF47EAF284602F0D5FA79E794F9330084
:10517C00012180B202F07CFE94F93400012180B24E
:10518C0002F076FE94F93400294680B202F081FEDA
:10519C0066E7606A18B104F1380102F0E9FA94F993
:1051AC003600002180B202F074FE80E71E4A934262
:1051BC000ED11E4903222046FFF789FE94F93130A7
:1051CC00012B0CBF9F21CF212046FFF711FE95E745
:1051DC00174A934292D1174903222046FFF777FED4
:1051EC0094F93130012B0CBF1021AF21ECE794F96D
:1051FC003600012180B202F04CFE606A002895D086
:10520C0002F09CFA92E700BF948E0B00D48B0B003B
:10521C00DC900B00E0900B00E4900B008000200071
:10522C00EE900B00E8900B0080004000F2900B0019
:10523C0060001000F5900B0070B5002ABDF81050FE
:10524C003DDBB0F90A40944239DD0029BEBF5B1842
:10525C001BB20021B0F90840CE18A642C4BF631A95
:10526C001BB2002B2BDDC06AD61014FB06110144B7
:10527C0002F0070001228240012DD2B216D0022D7D
:10528C000BD0E5B9D243D2B20B44994217D011F8E6
:10529C00010B104001F8010CF7E70B4499420ED0BA
:1052AC0011F8010B504001F8010CF7E70B4499423F
:1052BC0005D011F8010B104301F8010CF7E770BD94
:1052CC00F0B50029BDF8145076DBB0F90860B14296
:1052DC0072DA002ABEBF9B181BB20022B0F90A403A
:1052EC00D718A742C4BFA31A1BB2002B64DDC2F3AC
:1052FC00C404C76A16FB041612F00702DBB207EBF4
:10530C00060423D0C2F10802D2B22D4993423CBF0D
:10531C004FF0FF0CA2EB030E895C3CBF4CFA0EFC69
:10532C000CEA0101012D07D0022D2ED04DB917F832
:10533C0006C02CEA010103E017F806C041EA0C0193
:10534C00B955934238D3B0F908100C449A1AD2B21A
:10535C00072A0ED9022D1DD113462178C94321707D
:10536C00083BB0F90810DBB2072B0C44F5D802F05F
:10537C0007020AB3134B012D9B5C1AD0022D1CD0D3
:10538C00D5B9227822EA030315E017F806C081EAA2
:10539C000C01D5E7291E18BF01214942C9B2134699
:1053AC002170083BB0F90860DBB2072B3444F7D806
:1053BC00DDE7227813432370F0BD22785340FAE7DF
:1053CC00CC900B00D4900B0070B41446827EBDF8C8
:1053DC000C60022A0DD0032A18D0012A11D102899F
:1053EC00E443144424B203960A46214670BCFFF7EA
:1053FC0067BF42890589E44319441444691A24B2ED
:10540C0009B20396224670BCFFF716BF45891944B2
:10541C00691A09B2E7E730B41446827EBDF8085029
:10542C00022A0DD0032A18D0012A11D1E2180489BE
:10543C00A41A24B202950A46214630BCFFF7FCBEE2
:10544C000289C9431144E2184489A41A09B224B24E
:10545C000295224630BCFFF733BF4289C943114441
:10546C0009B2E7E72DE9F8430446806A002842D0E8
:10547C00A16C01F041FF474905222046FFF727FDAB
:10548C00218901392046C9B2FFF7B2FCB4F90A30C0
:10549C00DE1D48BF03F10E06D4E90A052389F61078
:1054AC0013FB06F615FA86F600283AD094F930105C
:1054BC0001F030FFA06A036840219B6898470127E0
:1054CC00B542A06A24D01F2F0CD901F02AFF94F901
:1054DC003010A06A01F01EFFA06A036840219B688F
:1054EC0098470127A06A15F8011B036801379B68D0
:1054FC009847FFB2E4E7606A18B104F1380102F092
:10550C0037F994F93600002180B202F0C2FCB2E700
:10551C0001F007FFA06A78B3E16CBDE8F84301F035
:10552C00EBBE94F93500012180B202F0B2FCAE4220
:10553C00F0D0606A15F8019B18B1494602F086F963
:10554C00F5E708274FF0800894F9330009EA0801C1
:10555C0080B202F09EFC94F93400012180B202F07A
:10556C0098FC94F93400002180B202F092FC013FC7
:10557C004FEA5808E8D1DAE794F93600012180B2F5
:10558C0002F087FC606A18B1BDE8F84302F0D6B8A7
:10559C00BDE8F883F8900B0000210A22C0E9001244
:1055AC007047002310B50446C171837188B202F0B4
:1055BC0089FC08B10323A37100F08EF9206010BDA3
:1055CC0038B50C4605461146A0B202F051FC2146F6
:1055DC002846BDE83840FFF7E4BF38B50446C0792B
:1055EC0002F070FCA579003825F0080318BF0120E3
:1055FC00C5F340058542A3710AD000F06DF9A3797B
:10560C00206083F00203A371A079C0F3C00038BD01
:10561C0000F062F92368C01AA3889842F4D3A379E6
:10562C0003F00103AB42EFD000F056F9A3792060F0
:10563C0083F0010343F00803E5E7000010B5064BC7
:10564C0003600446006D08B100F016F92046FFF720
:10565C0029FB204610BD00BF08910B0010B5044675
:10566C00FFF7ECFF20467021FEF723FD204610BD0E
:10567C0030B585B004460D4602F052FC104A114973
:10568C00CDE901214FF0FF328021034600922046E4
:10569C002022FFF77FFB0C4B23600023C4E9143559
:1056AC0004F15800FFF778FF04F16000FFF774FF76
:1056BC0004F16800FFF770FF204605B030BD00BF55
:1056CC00801A0600A086010008910B0013B5044651
:1056DC00503000F0C9F8636DD90705D502220421BA
:1056EC0004F15800FFF76CFF636D9A0705D5002293
:1056FC00032104F16000FFF763FF636D5B0705D5C1
:10570C000222114604F16800FFF75AFF01230093AF
:10571C003C2202212046FFF745FC02B010BD10B51B
:10572C00436DD907044602D55830FFF756FF636D19
:10573C009A0703D504F16000FFF74FFF636D5B0719
:10574C0005D504F16800BDE81040FFF746BF10BD59
:10575C0008B5024B1B689B68019308BD78020300D7
:10576C0008B5024B1B681B6A019308BD7802030045
:10577C0008B5024B1B681B6D019308BD7802030032
:10578C0008B5024B1B689B6D019308BD78020300A2
:10579C0008B5024B1B681B6E019308BD7802030011
:1057AC0008B5034B1B68D3F89830019308BD000073
:1057BC007802030008B5034B1B68D3F8A83001939B
:1057CC0008BD00007802030008B5034B1B68D3F832
:1057DC00B430019308BD00007802030008B5034BF8
:1057EC001B68D3F8D830019308BD00007802030081
:1057FC0008B5034B1B68D3F8DC30019308BD0000DF
:10580C007802030008B5034B1B68D3F8E83001930A
:10581C0008BD00007802030008B5034B1B68D3F8E1
:10582C00EC30019308BD00007802030008B5034B6F
:10583C001B68D3F8F030019308BD00007802030018
:10584C0008B5034B1B68D3F80031019308BD000069
:10585C007802030008B5034B1B68D3F8043101939D
:10586C0008BD00007802030008B5024B1B681B6BD7
:10587C00019308BD4802030008B5024B1B685B6B23
:10588C00019308BD4802030008B5024B1B685B6C12
:10589C00019308BD4802030008B5024B1B68DB6C82
:1058AC00019308BD4802030008B5024B1B685B6DF1
:1058BC00019308BD4802030008B5024B1B685B68E6
:1058CC00019308BD1802030008B5024B1B68DB6886
:1058DC00019308BD1802030008B5024B1B685B69F5
:1058EC00019308BD1802030008B5024B1B689B68A6
:1058FC00019308BD2C02030008B5024B1B68DB6842
:10590C00019308BD2C02030008B5024B1B681B69F0
:10591C00019308BD2C02030008B5024B1B685B69A0
:10592C00019308BD2C02030008B5024B1B681B68D1
:10593C00019308BD2802030008B5024B1B68DB6805
:10594C00019308BD2802030008B5024B1B689B6934
:10595C00019308BD2802030008B5024B1B68DB69E4
:10596C00019308BD2802030008B5024B1B681B6A93
:10597C00019308BD2802030008B5024B1B685B6A43
:10598C00019308BD2802030008B5024B1B689B6AF3
:10599C00019308BD2802030008B5024B1B68DB6AA3
:1059AC00019308BD2802030008B5024B1B681B6B52
:1059BC00019308BD2802030008B5024B1B685B6B02
:1059CC00019308BD2802030008B5024B1B681B6C31
:1059DC00019308BD2802030008B5024B1B685B69E4
:1059EC00019308BD6402030008B5024B1B689B6859
:1059FC00019308BD6802030008B5024B1B68DB6805
:105A0C00019308BD6802030008B5024B1B681B68B4
:105A1C00019308BD3002030008B5024B1B685B699B
:105A2C00019308BD3002030008B5024B1B68DB690B
:105A3C00019308BD3002030008B5024B1B681B6ABA
:105A4C00019308BD3002030008B5024B1B685B6A6A
:105A5C00019308BD3002030008B5024B1B68DB6BD9
:105A6C00019308BD3002030008B5024B1B681B6C88
:105A7C00019308BD3002030008B5024B1B685B6C38
:105A8C00019308BD3002030008B5024B1B68DB68AC
:105A9C00019308BD3C02030008B5024B1B681B694F
:105AAC00019308BD3C02030008B5024B1B685B69FF
:105ABC00019308BD3C02030008B5024B1B689B69AF
:105ACC00019308BD3C02030008B5024B1B68DB695F
:105ADC00019308BD3C02030008B5024B1B681B6A0E
:105AEC00019308BD3C02030008B5024B1B689B6A7E
:105AFC00019308BD3C02030008B5024B1B681B6CEC
:105B0C00019308BD3C02030008B5024B1B681B68DF
:105B1C00019308BD4C02030008B5024B1B685B687F
:105B2C00019308BD4C02030008B5024B1B681B69AE
:105B3C00019308BD4C02030008B5024B1B685B695E
:105B4C00019308BD4C02030008B5024B1B689B690E
:105B5C00019308BD4C02030008B5024B1B68DB69BE
:105B6C00019308BD4C02030008B5024B1B681B6A6D
:105B7C00019308BD4C02030008B5024B1B685B681F
:105B8C00019308BD6002030008B5024B1B689B68BB
:105B9C00019308BD6002030008B5024B1B68DB686B
:105BAC00019308BD6002030008B5024B1B689B699A
:105BBC00019308BD6002030008B5024B1B68DB694A
:105BCC00019308BD6002030008B5024B1B685B6BB8
:105BDC00019308BD6002030008B5024B1B681B6DE6
:105BEC00019308BD6002030008B5024B1B685B689B
:105BFC00019308BD2002030008B5024B1B685B69CA
:105C0C00019308BD2002030008B5024B1B68DB6A38
:105C1C00019308BD2002030008B5034B1B68D3F8A1
:105C2C008830019308BD00002002030008B5034B27
:105C3C001B68D3F89430019308BD000020020300C8
:105C4C0008B5024B1B68DB6B019308BD44020300D3
:105C5C0008B5024B1B685B68019308BD400203004A
:105C6C0008B5024B1B689B68019308BD40020300FA
:105C7C0008B5024B1B68DB68019308BD40020300AA
:105C8C0008B5024B1B681B69019308BD4002030059
:105C9C0008B5024B1B685B69019308BD4002030009
:105CAC0008B5024B1B689B69019308BD40020300B9
:105CBC0008B5024B1B68DB69019308BD4002030069
:105CCC0008B5024B1B681B6A019308BD4002030018
:105CDC0008B5024B1B681B6B019308BD4002030007
:105CEC0008B5024B1B685B6B019308BD40020300B7
:105CFC0008B5024B1B681B6C019308BD40020300E6
:105D0C0008B5024B1B685B6C019308BD4002030095
:105D1C0008B5024B1B681B68019308BD1C020300ED
:105D2C0008B5024B1B685B68019308BD1C0203009D
:105D3C0008B5024B1B689B68019308BD1C0203004D
:105D4C0008B5024B1B685B6A019308BD1C0203007B
:105D5C0008B5024B1B68DB6A019308BD1C020300EB
:105D6C0008B5024B1B68DB6B019308BD1C020300DA
:105D7C0008B5024B1B681B6C019308BD1C02030089
:105D8C0008B5024B1B685B6C019308BD1C02030039
:105D9C000021FFF731BF7047704770477047000014
:105DAC00064B994210B500F10C0405D0084602F0E0
:105DBC0021F9002808BF0024204610BDD4920B0006
:105DCC00064B994210B500F10C0405D0084602F0C0
:105DDC0011F9002808BF0024204610BDD4920B00F6
:105DEC00064B994210B500F10C0405D0084602F0A0
:105DFC0001F9002808BF0024204610BDD4920B00E6
:105E0C0010B568210446FEF754F9204610BD10B5B4
:105E1C0028210446FEF74DF9204610BD10B530215F
:105E2C000446FEF746F9204610BD6821FEF741B93D
:105E3C002821FEF73EB93021FEF73BB9F0B500251D
:105E4C00EC1C8C420DD86E1C445D875D974205D1CD
:105E5C002644B14205D31D60601CF0BD01342544BD
:105E6C00EEE70020F9E70000024A03490A20FFF799
:105E7C00ABBE00BFD5580B0058910B0030B40D468B
:105E8C0011461A46036809682868D3E90043A446FA
:105E9C0030BC6047012A38B5044602D10B68236038
:105EAC0003E0022A03D0032A0DD0002038BD0820BD
:105EBC000D68FEF7FAF803460028F0D095E80300C9
:105ECC0083E80300EBE700680028EED00821FEF71A
:105EDC00F0F8EAE710B58368044613B103220146D3
:105EEC009847204610BD10B504465830FFF7F2FF16
:105EFC0004F14800BDE8104001F0AEBC10B5436899
:105F0C00013B0446436063B903689B689847A368E8
:105F1C00013BA3602BB923682046DB68BDE8104029
:105F2C00184710BDA0F13003DAB2092A01D818467F
:105F3C007047A0F16103052B01D857387047A0F1C9
:105F4C004103052B94BF37384FF0FF3070470000EA
:105F5C0010B500230370044B04461868FFF79CFC33
:105F6C0001232370204610BDC0E6032010B5037832
:105F7C0004461BB1024B1868FFF796FC204610BD77
:105F8C00C0E6032082B00346086849686A4603C22B
:105F9C006A4603CA18601846596002B0704708B5C3
:105FAC0082798B799A4206D1062202F03FF9B0FA37
:105FBC0080F0400908BD0020FCE74FF0FF33036080
:105FCC0083800020704708B50246002101604160C3
:105FDC00FFF7F3FF9171104608BD000010B50123C7
:105FEC000361054B024603F1100153F8044B42F8D0
:105FFC00044B8B42F9D110BD4E850B0010B50B46EE
:10600C000446B1B1012A01F110020AD1014653F83C
:10601C00040B41F8040B9342F9D101232361204670
:10602C0010BD411E12F8010D01F8010F9A42F9D171
:10603C00F3E7102202F032F9F1E738B504461546C1
:10604C001A46FFF7DBFFA581204638BD08B502696B
:10605C0022B98089003818BF012008BD02491022DE
:10606C0002F0E4F8F6E700BFEC920B000069704711
:10607C0038B50C4614220021054602F00FF92369AD
:10608C001BB9A3892B80284638BD01232B742146CC
:10609C002B4604F1100251F8040B43F8040B914207
:1060AC00F9D1F0E780897047704708B502690B6930
:1060BC009A4206D1102202F0B9F8B0FA80F04009E9
:1060CC0008BD0020FCE7000001232DE9F34103612A
:1060DC00344B0C460646024603F1100153F8040BF0
:1060EC0042F8040B8B42F9D144B32421204602F030
:1060FC0026F904284FF0000523D1ADF8045001AF68
:10610C00A51C063415F8020CFFF70CFFB0F10008C3
:10611C0012DB15F8010CFFF705FF00280CDB02352C
:10612C0040EA0810A54207F8010BEBD19DF80530A9
:10613C0033739DF8043073730023336102B0BDE8F0
:10614C00F0814FF010082421204602F0F8F8A84204
:10615C0007D842460021304602B0BDE8F04102F0BB
:10616C009DB8B8F1000FE9D0605DFFF7DBFE0306C8
:10617C0015D4000108F1FF38C7B206F808702421C5
:10618C00204602F0DCF80135A84208D9605DFFF723
:10619C00C9FE40B20028A4BF384306F808000135F8
:1061AC00D1E700BF4E850B0013B504460191FFF7F4
:1061BC0015FF20460199FFF787FF204602B010BD5E
:1061CC0038B54FF6FF730025044643800E2229464E
:1061DC0005700571063002F061F804F11400FFF748
:1061EC00FDFE04F12800FFF7F9FE044904F13C0020
:1061FC0001F07DFB6565204638BD00BF848B0B002C
:10620C0010B5D0E9063203EBC2029342184606D011
:10621C00046824888C4203F10803F6D110BD0020D9
:10622C00FCE70000F0B5064685B01F460D46002978
:10623C0050D0002A4ED004682378F42A28BFF422C8
:10624C0043B32379980709D5A08903920023FFF75C
:10625C00BBFA0028039A03DA05B0F0BD6FF07700A3
:10626C0034682379D90609D5012F07D0A0890023DA
:10627C00294605B0BDE8F040FFF7E2BA9B06EBD526
:10628C00022FE9D0A0890023294605B0BDE8F040D3
:10629C00FFF7E0BA60884FF6FF7188421CD0217975
:1062AC004E0701D5012F04D10B0709D46FF07700ED
:1062BC00D2E7A189009313462A46FFF799FACBE758
:1062CC00022FF3D00023A189009313462A46FFF72F
:1062DC0085FAC1E70248BFE76FF0D100BCE700BF09
:1062EC00F2FEFFFF2DE9F04100260660074628204C
:1062FC000C46FDF7DAFE051E05F10C080FD0012344
:10630C00C5E90133084B2B604046FFF767FE0FCC05
:10631C002E6285F8246046460FC623683360C7E9B1
:10632C0000853846BDE8F081A4920B0070B50025BD
:10633C00056006463020FDF7B8FE044688B10123FF
:10634C00C0E90133094B03604FF6FF7383810E30B4
:10635C00FFF739FEC4E90655C4E90855C4E90A55E6
:10636C00A57574600C343460304670BDC0920B005F
:10637C0013B5044601A8FFF7EBFD23681C884FF604
:10638C00FF73E41A01A818BF0124FFF7EFFD2046A4
:10639C0002B010BD37B50D46044601A8FFF7D8FD75
:1063AC002A68D2F802302360D2F80630636001A864
:1063BC00FFF7DCFD204603B030BD30B5054687B095
:1063CC000C4601A8FFF7C4FD2A68236812881B88B5
:1063DC009A420DD1294602A8FFF7DCFF214604A8FA
:1063EC00FFF7D8FF04A902A8FFF7D9FD044600B9AE
:1063FC00002401A8FFF7BAFD204607B030BD00000D
:10640C0010B504466420FDF750FE68B10023C0E9C6
:10641C000033C0E90233C0E90433C0E90633036238
:10642C00C362C363C364C365206020B90A4A0B49C5
:10643C000A20FFF7C9FB0020FFF78AF920B1064AB2
:10644C0007490A20FFF7C0FB216806480022FFF726
:10645C00EDF9204610BD00BFD5580B0058910B002C
:10646C0096910B001D6A0B0010B50A4C2378BFF3F4
:10647C005B8FDB070CD42046FDF72AFE40B10648A3
:10648C00FFF7BEFF2046FDF728FE044801F0C4FECE
:10649C00014810BDB8E60320C4E60320E9660B00F2
:1064AC0030B50368093B012B8DB004460D4611D85D
:1064BC00FFF7DAFFA1880068FFF7A2FE034658B980
:1064CC002022CDE904200B4A00920B4904AA322069
:1064DC00FFF782FB0DB030BD6A6D002AFAD0D4E90B
:1064EC00032105F14C00CDE90312AC6D04AA03A9FC
:1064FC00A047EFE7D8910B006F910B0008B5002077
:10650C00FFF726F900EAE07008BD10B50C4621B182
:10651C001421204601F013FF014620460022BDE85D
:10652C001040FFF71DB919B90A460846FFF720B904
:10653C00D1E900010022F9E70368D8690028D4BF2B
:10654C0000200120704738B5141E4368054602DB55
:10655C0062189A4200DD5C1A2A68501801191A4414
:10656C00521A01F081FE6A68121B6A6038BD37B599
:10657C000A4604460D4601ABD0E90001FFF75EFC6C
:10658C00024638B101992046FFF7DDFF2946204627
:10659C00FFF7EDFF03B030BD10B50C4629B90A4624
:1065AC000846BDE81040FFF7EBB801212046FFF785
:1065BC00DEFFD4E900010022F3E738B504461546A6
:1065CC00FFF7B1FF00280ADB29462046FFF7E4FF5E
:1065DC00002804DBBDE838400020FFF7D9B838BDEF
:1065EC0038B500230446836008200D46FDF75DFD99
:1065FC0018B12B6803606B684360034BE360034B7B
:10660C002060A360204638BD895E0B00A15E0B00A4
:10661C000B68036013B15A6801325A60704710B5A9
:10662C0051F8043B044640F8043BFFF7F1FF2368A4
:10663C000BB9FFF719FC204610BD10B551F8043BFF
:10664C00044640F8043BFFF7E3FF204610BD10B5AD
:10665C0051F8043B044640F8043BFFF7D9FF2046B1
:10666C0010BD10B50446006808B1FFF747FC204682
:10667C0010BD10B504460430FFF7F3FF204610BDE3
:10668C0070B5D0E90053044605EBC306AE4204D006
:10669C00281DFFF7E6FF0835F8E72068FFF740FBF9
:1066AC00204670BD70B5D0E90053044605EBC30617
:1066BC00AE4204D0281DFFF7D4FF0835F8E7206858
:1066CC00FFF72EFB204670BD10B504462430FFF7B3
:1066DC00E9FF04F11800FFF7D3FF10BD70B5174B9D
:1066EC001C6854B304F15400FFF7F4FB04F14400AC
:1066FC00FFF7F0FB04F13400FFF7ECFB04F124008E
:10670C00FFF7E8FBD4E9065305EBC306AE4204D011
:10671C00281DFFF7A6FF0835F8E7A069FFF700FB77
:10672C0004F10C00FFF7BEFF2046FFF7A9FF20463F
:10673C006421BDE87040FDF7BCBC70BDC4E603200D
:10674C0013B50023D1E90042C1E90033036800937B
:10675C0004604368426001A80193FFF782FF02B016
:10676C0010BD826810B50AB901F040FCBDE81040BC
:10677C00C368184738B50D1E0446006803DDFFF7E3
:10678C00D7FA18B938BDFFF7CBFA00202060A56006
:10679C000120F7E708B583688B4202DAFFF7EAFFBE
:1067AC0008BD0120FCE72DE9F0410F4641681D466C
:1067BC001944836899420446904612DC2668626844
:1067CC003E44D21B3146701901F04EFD2A4641461B
:1067DC00304601F03BFD63682B4463600120BDE84B
:1067EC00F081FFF7C7FF0028E8D1F8E7F8B50D46B0
:1067FC00D0E901139942044616460BDA2768626801
:10680C007919521B481C01F02FFD7E55636801332A
:10681C006360F8BD0131FFF7ADFF0028EED1F8E75A
:10682C000A464168FFF7E2BF2DE9F74304461D46CF
:10683C000F4601AB90460A46D0E900019DF828901E
:10684C00FFF7FCFAAE1C63680246B9F1000F26D1C3
:10685C0028B333441B1AFF2B09D801992046FFF7A4
:10686C0072FE616820463144FFF794FF18B96068E6
:10687C0003B0BDE8F0836A1C0199D2B22046FFF741
:10688C00B5FF01993A4601312046FFF7AFFF019958
:10689C002B46424602312046FFF785FFE7E7F11809
:1068AC00FF29E4D82046FFF775FF0028DFD0691CCC
:1068BC00C9B22046FFF7B4FF39462046FFF7B0FFB8
:1068CC0061682B464246E6E730B49DF808501AB191
:1068DC00029530BCFFF7A8BF406830BC70471FB5AD
:1068EC000023C0E9003383600622009301238DF856
:1068FC000F2019460DF10F020446FFF7E5FF204665
:10690C0004B010BD8842F8B504460D46164614D99D
:10691C00904213D2A2F10806751AA1F108072C4473
:10692C00B74218D01CB131462046FFF790FE301DFF
:10693C00FFF797FE083E083CF2E70CD0B5420AD0B0
:10694C001CB129462046FFF782FE281DFFF789FE61
:10695C0008350834F2E7F8BDF7B5044646686846D2
:10696C00FFF775FED4E901739F4212DB0137002F4C
:10697C0029DDF800FFF7CCF90546F0B1D4E9001297
:10698C0001EBC202FFF7BEFF2068FFF7C9F92560D3
:10699C00A7602368626803EBC60603EBC2023146AC
:1069AC0006F10800FFF7AEFF1EB169463046FFF74F
:1069BC004EFE636801336360012501A8FFF751FEA9
:1069CC00284603B0F0BD0025DEE7F8B5D0E900435A
:1069DC0005460F4604EBC306A64205D039462046B1
:1069EC00FFF7EBFC08B114B9F8BD0834F4E7201D2F
:1069FC00FFF737FED5E9003204F1080103EBC202C0
:106A0C002046FFF77FFF6B68013B6B60ECE70000F3
:106A1C002DE9F04105468EB003A80C46FFF798FA15
:106A2C002E68F31E0D2B3CD8DFE813F00E00570038
:106A3C003B00D3003B003B003B003B003B009D0078
:106A4C009D009D009D009D0004A8FFF76FFC049B1A
:106A5C00AA891A806968049808310230FFF792FA03
:106A6C0004A906A8FFF7F3FD06A904F11800FFF727
:106A7C0073FF054607A8FFF7F4FDC5B92023CDE940
:106A8C0006355E4B5E49009306AA2B460120FFF7A4
:106A9C00A3F8049B29461888FEF782FE05A8FFF789
:106AAC00E0FD03A8FFF762FA0EB0BDE8F081E36ADF
:106ABC0023B104A904F12400FFF753FE05A8FFF746
:106ACC00D0FD20210023CDE906134E4A00924C49FB
:106ADC0006AA0120FFF780F8E3E7A9892046FFF713
:106AEC008FFB06460028DCD00568D5E906324FF648
:106AFC00FF71298003EBC2029A4203D053F8080BB2
:106B0C004180F9E7D5E9037307EBC308B84504D016
:106B1C00381DFFF7A6FD0837F8E700232B61D5E9F0
:106B2C00067307EBC308B84504D0381DFFF799FD71
:106B3C000837F8E70023EB61AB72E36B23B1314606
:106B4C0004F13400FFF70DFE33684FF6FF721A8024
:106B5C00314604F11800FFF738FF20220023CDE95D
:106B6C000623294AB2E7A9892046FFF749FB0028EA
:106B7C0097D0E36C002B94D000230D2EADF816307B
:106B8C0001D0102E17D1002369681A4606258DF8FE
:106B9C00153004918DF814200690DDE9040109AB41
:106BAC008DF81C60089583E80300236D06A904F199
:106BBC004400984775E70F2E01BF2B7A696803F0E4
:106BCC00010208250FBFC3F340031A4619461D46A0
:106BDC00DDE7A9892046FFF713FB014600283FF4A7
:106BEC0060AFE36D002B3FF45CAF6B68069306AAB5
:106BFC00236E04F15400984753E700BFF0910B004B
:106C0C006F910B0016920B0020920B0013B50446EB
:106C1C00FFF7AEFBD0B1236800211888FEF7C0FD4A
:106C2C00002811DB01A8FFF793F9FFF71DFC0068A2
:106C3C0021461830FFF7C9FE23684FF6FF721A8001
:106C4C0001A8FFF793F9002002B010BD6FF0D1003E
:106C5C00FAE700002DE9F04104468AB06846FFF7D8
:106C6C0077F92368DFF86C80D3E9064604EBC60697
:106C7C00B44229D02022002102A8CDF8048001F0D2
:106C8C000DFB23680022188801A9FEF7BBFD054601
:106C9C0008B10834ECE79DF80870012FF9D10C4EBF
:106CAC003068FEF701FE20468DF80050FFF7AEFF6E
:106CBC003068FEF7F1FD8DF800706846FFF756F965
:106CCC0028460AB0BDE8F0816FF0A905F5E700BFD2
:106CDC00C0E603200300240013B50B460246D0E99E
:106CEC0000016C4684E8030093E8030082E803008B
:106CFC0094E8030083E8030002B010BD38B50546E4
:106D0C000C46FFF7E9FFAB68A268AA60A360EB68CA
:106D1C00E268EA60E36038BD70B504468CB00E469C
:106D2C0001921D46FFF74CFA2671019904F13C00C3
:106D3C0000F016FE04F14C06CDB1109B029502A991
:106D4C0004A80393FFF74CFC002308A904A80A939A
:106D5C00FFF7D4FF314608A8FFF7D0FF08A8FFF7CC
:106D6C00B9F804A8FFF7B6F820460CB070BD06952C
:106D7C00EAE700002DE9F04F87B01D46DDE910432E
:106D8C0080468B469246129903930022682002910A
:106D9C000492FDF78AF9061E06F10C0918D001229F
:106DAC003746C6E901220299154A47F8202B039B66
:106DBC0000915A4651464846FFF7AEFF0FCD0FC71C
:106DCC002B683B600FCC06F134050FC523682B6094
:106DDC0004A94046CDE90496FFF7B2FC05A8FFF7DD
:106DEC0040FCD8F800303BB9064A07490A2007B0E6
:106DFC00BDE8F04FFEF7E8BE07B0BDE8F08F00BF6E
:106E0C0088920B00D5580B0058910B008842F8B5AE
:106E1C0004460D46164614D9904213D2A2F1080628
:106E2C00751AA1F108072C44B74218D01CB1314691
:106E3C002046FFF702FC301DFFF713FC083E083C10
:106E4C00F2E70CD0B5420AD01CB129462046FFF718
:106E5C00F4FB281DFFF705FC08350834F2E7F8BDF4
:106E6C0070B50E1E054611DDF000FEF751FF04460D
:106E7C0058B1D5E9001201EBC202FFF7C7FF286831
:106E8C00FEF74EFF2C60AE60012070BD0024F6E7CB
:106E9C0073B5044645686846FFF7CFFBD4E9011388
:106EAC00994210DA2368626803EBC50503EBC20252
:106EBC00294605F10800FFF7A9FF8DB96368013376
:106ECC006360012606E001312046FFF7C9FF064644
:106EDC000028E7D101A8FFF7C4FB304602B070BD13
:106EEC0069462846FFF7A9FBE8E78842F8B504464F
:106EFC000D46164614D9904213D2A2F10806751A03
:106F0C00A1F108072C44B74218D01CB131462046D9
:106F1C00FFF785FB301DFFF7A4FB083E083CF2E7AA
:106F2C000CD0B5420AD01CB129462046FFF777FB9E
:106F3C00281DFFF796FB08350834F2E7F8BD70B54D
:106F4C000E1E054611DDF000FEF7E2FE044658B1B8
:106F5C00D5E9001201EBC202FFF7C7FF2868FEF764
:106F6C00DFFE2C60AE60012070BD0024F6E773B527
:106F7C00044645686846FFF752FBD4E90113994271
:106F8C0010DA2368626803EBC50503EBC2022946DD
:106F9C0005F10800FFF7A9FF8DB963680133636041
:106FAC00012606E001312046FFF7C9FF06460028FE
:106FBC00E7D101A8FFF755FB304602B070BD69461A
:106FCC002846FFF72CFBE8E72DE9F04F1746A1B058
:106FDC0080460AA80E46FEF7BBFF3C68237953B9DE
:106FEC0039464046FFF71BFB0AA8FEF7BFFF404699
:106FFC0021B0BDE8F08F3368D3E9035305EBC3032D
:10700C00039304F1280A04F1140B039B9D4221D035
:10701C00D5F80090584609F11401FFF746F8B8B1BD
:10702C0009F128015046FFF740F888B12368D9F8D8
:10703C000020534033F47F430AD12022CDE915239D
:10704C005E4A009215AA5E493220FEF7C5FDC7E7DD
:10705C000835DAE75046FEF7F9FF60B959490122C5
:10706C0015A815ADFEF7CAFF0FCDD446ACE80F003E
:10707C002B68CCF800303368D3E9005305EBC30B15
:10708C005D45A94651466ED055F8080BFFF70DF833
:10709C000028F5D004F1140A5046FEF7D7FF88B942
:1070AC00494B48491A88013292B21A8015A801231B
:1070BC0015ADFEF7C2FF0FCDD446ACE80F002B6820
:1070CC00CCF80030414B15932822002116A801F072
:1070DC00E5F8514604A8FEF7CBFF04AB18AA0DF156
:1070EC00200C18685968154603C5083363452A46B1
:1070FC00F7D11868286023798DF85830D9F800300A
:10710C009B8AADF87430E36B1793314B0022A11DB1
:10711C0015A8CDE91E34FEF77FFB00287FF460AF85
:10712C0001232370346839460C340DA8FFF777FA25
:10713C0020460DA9FFF71BFF04460EA8FFF791FA96
:10714C00002C7FF44DAF2023CDE90D34214B00935F
:10715C000DAA234677E739464046FFF760FA0CA89C
:10716C00FFF77FFA40E70BA8FFF7BCF8514615A8CC
:10717C00FEF77EFF0B9A0023143215A90120FEF7AF
:10718C0019FB0028E7D135680BA90DA8FFF755FAB4
:10719C0028460DA9FFF77CFE05460EA8FFF761FAFD
:1071AC00002DD8D032685368126803F10053013BAC
:1071BC000CA802EBC309FFF754FA6BE72D920B00F6
:1071CC006F910B00DC920B00BCE6032003002C003B
:1071DC00AD640B0058920B00024800230360FEF7CD
:1071EC0053BB00BFC0E60320002240681146FEF7E7
:1071FC0067BD002240681146FEF772BD4068002250
:10720C00FEF766BD4068002281F00101FEF750BD1B
:10721C00002340681A461946FEF742BD0023406819
:10722C001A461946FEF734BD002240681146FEF797
:10723C0027BD002240681146FEF712BD40680022AF
:10724C000221FEF715BD002340681A46FEF700BD6B
:10725C00024B03225A60024A1A607047C8E60320A8
:10726C0004930B007047F8B5064615460C468F186C
:10727C00BC4206D0336814F8011B9B683046984713
:10728C00F6E72846F8BD007C0022FEF76DBB007CBB
:10729C000021FEF771BB007C0021FEF775BB007C62
:1072AC000021FEF779BB007C0021FEF77DBB10B5F9
:1072BC0014210446FCF7FDFE204610BD38B50446EB
:1072CC0015464FF47A730022C4E90123094B21744B
:1072DC00084623602946FEF777FBBF3008D16B695F
:1072EC00DB0705D56868FEF71BFDE868FEF718FD9F
:1072FC00204638BD40930B00007C0022FEF714BBE7
:10730C000023007C1A461946FEF716BB007C0022AF
:10731C00FEF71ABBC9B2FFF7F9BF007C0022FEF7DB
:10732C001BBB0121FFF7F9BF704710B518210446AC
:10733C00FCF7BFFE204610BDF0B5037D062B8DB0CB
:10734C000E4600F104074FF0000412D000F10805BE
:10735C0015F8011D0A22304600F053F9AF420444DF
:10736C0019D0002CF4D02E21304600F03BF9044407
:10737C00EEE72F236A4639460A208DF80040FEF7C7
:10738C002BFB6846FCF74EFE33680246DB68694609
:10739C0030469847044620460DB0F0BD10B5054B5D
:1073AC000446112240F8043B002100F077FF2046F0
:1073BC0010BD00BF68930B000346074A10B543F895
:1073CC00042B01F1100251F8044B43F8044B914289
:1073DC00F9D10A781A7010BD68930B0010B59DF89E
:1073EC00084044EA032343EA024242EA01610423CF
:1073FC004160037510BD000007B5064B0360CB78E8
:10740C0000938B784A780978FFF7E8FF03B05DF8B2
:10741C0004FB00BF68930B00014B024A1A607047D3
:10742C00D0E6032074930B00002340681A46FEF745
:10743C000FBC406800220221FEF71ABC00224068F3
:10744C001146FEF70DBC002240681146FEF718BC31
:10745C00002340681A461946FEF71ABC0023406800
:10746C001A461946FEF71CBC40680021FEF740BCCA
:10747C0040680021FEF744BC4068002281F0010105
:10748C00FEF716BC40680022FEF722BC00224068C2
:10749C001146FEF725BC002240681146FEF710BCD1
:1074AC002DE9F04395B014460D460746FFF776FFDD
:1074BC0000211C220DA8009100F0F0FE40230C933B
:1074CC0020466B460CAA0021FEF796FA04460028CB
:1074DC004BD1024601216868FEF7D2FB022180469F
:1074EC0022466868FEF7CCFB009E81462146002EA2
:1074FC003BD0002939D17368022B03D00A2B11D051
:10750C00F669F4E7B8F1000FFAD0716906A80431F6
:10751C0007ADFFF771FF0FCD3C1D0FC42B68237017
:10752C004146EDE7B9F1000FEAD07469102201A8C9
:10753C0000F0B4FE06238DF8143001AD04F10803FD
:10754C001834186859682A4603C20833A3421546F2
:10755C00F7D101A906A807ADFFF72EFF0FCD3C1DF3
:10756C000FC42B6823704946CAE70098FEF73CFA13
:10757C00384615B0BDE8F083024B034A1A6000226E
:10758C005A607047D4E6032080930B00F8B506468A
:10759C000D468F180024BD420CD0336815F8011B22
:1075AC009B6830469847031E01DB1C44F3E7002C14
:1075BC0008BF1C462046F8BD13B50446084659B111
:1075CC000191FCF72FFD23680199DB6802462046E8
:1075DC0002B0BDE81040184702B010BD08B5FFF767
:1075EC00EBFF08BD03689B68184738B50D210546AD
:1075FC00FFF7F8FF0A2104462846FFF7F3FF204463
:10760C0038BD30B58BB00023012A8DF8243098BFDB
:10761C000A2209AC0D46B1FBF2F101FB125303F047
:10762C00FF03092B94BF30333733DBB2AA4204F883
:10763C00013DEFD92146FFF7BFFF0BB030BD2DE95F
:10764C00F04186B000AF05460E46381D1421144695
:10765C003B60FEF775FB13280ED8391D2846FFF743
:10766C00ABFF04461EB12846FFF7BFFF044420467B
:10767C001837BD46BDE8F08100F1080323F007037D
:10768C00E846ADEB030D2246411C3B686846FEF70D
:10769C0057FB69462846FFF78FFF0446C546E1E7CE
:1076AC0010B50446FEF780FA844208D01CB1BDE840
:1076BC001040FEF769BABDE81040FEF76DBA10BD78
:1076CC0070B505460E461446FEF76EFA50B144EA04
:1076DC00062444EA0540FEF74FFABDE87040E72067
:1076EC00FEF76ABA70BD0000014B00229A60704729
:1076FC00DCE603200021FEF7BFB90021FEF7B4B988
:10770C0010B5044608462170FEF78EF9002363601D
:10771C00204610BD13B504460078FFF7EEFF58B9AC
:10772C00207801904FF6FF71FEF76EF9019802B0C8
:10773C00BDE81040FFF7DEBF02B010BD0078FFF7C8
:10774C00D9BF0000400830B5186000241868884282
:10775C00E5B206D90134082C02D040081860F5E7D0
:10776C000725024B5B5D137030BD00BFB4930B005B
:10777C002DE9F04306468FB000780C46FFF7BDFFAD
:10778C0000281BDB35781422002109A800F086FDA7
:10779C000B23002209A92846ADF82430FEF754F932
:1077AC009DF82D3013B19DF82C5055B10027B946DA
:1077BC00B846012523795DB1C3B100200FB0BDE8F7
:1077CC00F083DDF830809DF834909DF83570F1E74A
:1077DC00002B35D1A368434508D18DF820908DF846
:1077EC002170BDF82020A3899A42E6D00023A1681D
:1077FC008DF80F300A9804AB0DF10F02FFF7A2FFC2
:10780C00217985B989B9A36843450ED38DF82090A9
:10781C008DF82170BDF82020A3899A4205D1049BD4
:10782C00434502D1C9E70029F9D100230193637BB9
:10783C0000939DF80F20237B3078FEF70DF9BCE701
:10784C00CDE900552B462A460121F5E708B500780D
:10785C00FEF7E2F8C0B208BD10B504460068FEF7AA
:10786C005FFA204610BD10B50446006808B1FEF75B
:10787C0057FA0023C4E90133236010BD38B5044620
:10788C000D4600680131FEF753FA10B1C4E900054A
:10789C00012038BD10B50368044623B143688B4200
:1078AC0001D3012010BD2046FFF7E8FF0028F9D0D6
:1078BC00A368002BF5D122681370F2E737B50D469B
:1078CC00114601920446FFF7E5FF019A28B92046BC
:1078DC00FFF7C9FF204603B030BDA26029462068DF
:1078EC0000F0B4FC2268A3680021D154F2E7002315
:1078FC0013B5C0E9003304468360037341B10846F5
:10790C000191FCF78FFB019902462046FFF7D6FF49
:10791C00204602B010BD38B5054600680C4668B16B
:10792C006A688B689A4207D3096800F0EDFCA3687B
:10793C00AB600023A36038BDFEF7F2F923682B601F
:10794C0063686B60A368AB600023C4E90033F1E7A4
:10795C00884210B5044601D0FFF7DDFF204610BD6C
:10796C0013B5044659B108460191FCF75BFB01992C
:10797C0002462046FFF7A2FF204602B010BDFFF7DB
:10798C0072FFF9E71FB504460023C4E90033A36076
:10799C002373084601A900F08BF901A92046FFF7D3
:1079AC00DFFF204604B010BD58B50E462AB121B1F8
:1079BC008468A34202D300230B7058BDE41A013A29
:1079CC000168944228BF144619442246304600F000
:1079DC00A3FC00233355F0E7006808B100F022BC8B
:1079EC0070470000054B02221A60054B054A9A604D
:1079FC000020C3E90000FEF7F7B800BFF8E603204B
:107A0C00ECE603200000FFFF024B1A68024B1A60E1
:107A1C00704700BF60E50320FCE60320704741740B
:107A2C00704708B5007CFEF75FF820EAE07008BDEF
:107A3C0008B5007CFEF730F820EAE07008BD08B508
:107A4C00007CFEF739F840EAE07008BD08B5007C10
:107A5C00FEF72AF840EAE07008BD007CFEF734B867
:107A6C0037B5457C04462DB1207C03B0BDE83040D1
:107A7C00FEF70AB8007C0191FEF736F80028019950
:107A8C00F2DC284603B030BD10B514210446FCF7D7
:107A9C0010FB204610BD000010B54FF47A7304465D
:107AAC00084611460022C4E90123044B236001233C
:107ABC0020746374FEF720F8204610BDE0930B0091
:107ACC00417470477047704708B50021007CFEF781
:107ADC003BF840EAE07008BD08B50121007CFEF7D8
:107AEC0033F840EAE07008BD08B5007CFEF724F8D6
:107AFC0020EAE07008BD08B5007CFEF715F820EA16
:107B0C00E07008BD13B50446007C0191FEF714F833
:107B1C000028019901DC607C20B1207CFEF71CF868
:107B2C0020EAE07002B010BD007CFEF71DB810B565
:107B3C0014210446FCF7BDFA204610BD10B54FF4D5
:107B4C007A73044608460021C4E90113044B2360F0
:107B5C000123207463741146FDF7D6FF204610BD37
:107B6C0010940B00007C0022FDF7D6BF10B5142238
:107B7C000446002100F092FB204610BD10B50F4CBE
:107B8C0088B003A8FFF7F2FF2178BFF35B8F11F0E9
:107B9C0001010FD120460191FCF79AFA019948B1E5
:107BAC0003AA0748FFF7CAFF2046FCF796FA0548D8
:107BBC0000F032FB024808B010BD00BF00E7032004
:107BCC0004E70320D17A0B00002240681146FEF72F
:107BDC0057B8002240681146FEF772B80022406880
:107BEC001146FEF77DB840680022FEF771B8406878
:107BFC00002281F00101FEF75BB8002340681A46B1
:107C0C001946FEF74DB8002340681A461946FEF790
:107C1C003FB8002240681146FEF722B840680022A7
:107C2C000221FEF725B8002340681A46FEF710B86B
:107C3C00024B04225A60024A1A60704718E703206C
:107C4C0040940B0010B50446FCF7ECF901382318EE
:107C5C002046834206D90278197800F8011B03F8F4
:107C6C000129F6E710BD70B50C46911E22291DD8CE
:107C7C00254630B9234430229D4210D205F8012B01
:107C8C00FAE7B0FBF2F602FB1600C1B2092894BF6A
:107C9C0030315731C9B205F8011B3046E9E70023F2
:107CAC0020462B70FFF7CEFF204670BD0020FCE76E
:107CBC0008B50123FFF7D7FF08BD0000014B186082
:107CCC00704700BF64E5032008B50B4B43B1FFF7C9
:107CDC0055FF03681B699847002801DDAFF300804E
:107CEC00064B43B100F05CF903681B699847002808
:107CFC0001DDAFF3008008BD0000000000000000B3
:107D0C0008B5FFF7E1FFFDF7E7FD014B186008BD73
:107D1C0028E703200548064A064908B5121A00F060
:107D2C0095FA054B054A1A6008BD00BF00F4032004
:107D3C0004F4032090970B0000F403201E1C279AD8
:107D4C0007B5002300931A466FF07701FDF76EFF1D
:107D5C0003B05DF804FB000007B543880A2B08D07C
:107D6C00502B0BD1094B1B684BB103B05DF804EBE6
:107D7C001847FFF7E5FF03B05DF804FB0023009301
:107D8C001A466FF07701FDF751FFF4E724E7032063
:107D9C0010B512480021FDF7F3FF114B1A68114B77
:107DAC009A42114B0CBF012200221A7001D0FFF72E
:107DBC00B1FFFDF781FD044600F078FA0B4B13B1CF
:107DCC002046AFF3008000210848FDF739FFBDE8DD
:107DDC00104007480021FDF71FBF00BFC97C0B00F6
:107DEC0000F403201E1C279A20E70320000000004B
:107DFC00657D0B00232813B502D9002002B010BDFD
:107E0C00A0F10B03022B1AD8174C2178BFF35B8F10
:107E1C0011F001010BD120460191FCF759F90199A0
:107E2C0028B11248FFF76CFC2046FCF756F90F4BB3
:107E3C001878FDF701FE0028DFD10120DEE70128CC
:107E4C0009D800F06DF80021007CFDF7B5FD80F03D
:107E5C000100C0B2D2E709380128EED800F0A0F832
:107E6C00007CFDF739FEF2E7ACE60320B0E6032018
:107E7C00232838B504460D460AD8FF2908D0FFF749
:107E8C00B9FF28B129462046BDE83840FDF72CBD86
:107E9C0038BD38B504460D46FDF72EFDFF2810D031
:107EAC00062804D84D2323FA00F0C30709D4204632
:107EBC00FFF7A0FF28B129462046BDE83840FDF762
:107ECC0023BD38BD10B50446FDF716FD031FDBB20C
:107EDC00012B08D92046FFF78DFF20B12046BDE8C5
:107EEC001040FDF719BD002010BD704738B50A4B86
:107EFC0003600123044643610849202000F074F814
:107F0C00202560600549A560284600F06DF8C4E99D
:107F1C000305204638BD00BF1800010074940B0007
:107F2C0030B50E4D2978BFF35B8F11F0010487B08B
:107F3C0011D12846FCF7CCF868B16846FFF7D6FF9C
:107F4C006A4621460648FFF7B9F92846FCF7C5F8FA
:107F5C00044800F061F9024807B030BD2CE703205B
:107F6C0030E70320F77E0B007047000038B504465D
:107F7C0014252A46002100F091F925804025074957
:107F8C0025812846258200F02FF804496060284698
:107F9C0000F02AF8E060204638BD00BF74940B0056
:107FAC0030B50E4D2978BFF35B8F11F0010487B00B
:107FBC0011D12846FCF78CF868B101A8FFF7D6FF61
:107FCC0001AA21460648FFF767FD2846FCF785F80D
:107FDC00044800F021F9024807B030BD44E7032003
:107FEC0048E70320757F0B00FCF761B808B5FDF777
:107FFC00AFFE0000014900F0F9B800BF90940B00EF
:10800C007FB500241023CDE90234036815469E6920
:10801C0012686B46CDE90044B0479DF8043003F07C
:10802C000603062B03BF009B2B600120204604B0E7
:10803C0070BD0098904214BF0120062070470000CC
:10804C0010B5034B0360044600F0CDF8204610BD7C
:10805C00D0940B0010B50446FFF7F2FF2046082120
:10806C00FCF727F8204610BD2DE9F0411F46DDE94D
:10807C000834DDF8188098450646154607D107994F
:10808C0000F0B4F818B165710020BDE8F0813946F4
:10809C00304600F0ABF80028F6D00123C4F800807D
:1080AC002571A371F0E738B515461C4600F09EF813
:1080BC0020B10823E36006232560237138BD73B516
:1080CC0005460C4601921E4600F090F850B9032E5E
:1080DC0008D82368019A5B692946204602B0BDE89E
:1080EC007040184702B070BD10B5034B03600446D6
:1080FC00FFF7A6FF204610BD30950B0010B50446C7
:10810C00FFF7F2FF20460C21FBF7D3FF204610BDF2
:10811C00F7B5089F974205460E4614460AD0A86844
:10812C0002680897156A31462246AC4603B0BDE892
:10813C00F04060471946019300F058F8019B002865
:10814C00EDD0062003B0F0BD2DE9F14F0D461946D8
:10815C00DDE90A4BDDE90CA681461746984600F08E
:10816C0045F890B1002D3460377109DB61198A45EF
:10817C000CBF06210121B171002001B0BDE8F08FC8
:10818C000235F9D10123B371F6E7544506D15946AE
:10819C00484600F02BF808B17771EDE7D9F80800E4
:1081AC000368CDE90CA6CDE90A4BDC693A46434697
:1081BC002946A44601B0BDE8F04F60472DE9F041D7
:1081CC0007460C4615461E46FFF76DFF48B9B868C2
:1081DC0003689F692A4633462146BC46BDE8F041F8
:1081EC006047BDE8F081704700207047814208B5B8
:1081FC000ED0406803782A2B0CD049680B782A2BB8
:10820C0008BF0131FBF704FFB0FA80F0400908BD4C
:10821C000120FCE70020FAE7002301461A46184625
:10822C0000F026B90A22002100F018B910B5013966
:10823C000244904201D1002005E0037811F8014F6F
:10824C00A34201D0181B10BD0130F2E70A44914241
:10825C0000F1FF3300D1704710B511F8014B03F852
:10826C00014F9142F9D110BD884210B501EB0204C7
:10827C0002D98442234607D8431EA14208D011F8E4
:10828C00012B03F8012FF8E7024401468A4200D182
:10829C0010BD13F8014D02F8014DF7E702440346F7
:1082AC00934200D1704703F8011BF9E738B5104B26
:1082BC001D68AB6B0446B3B91820FDF729FD0246C7
:1082CC00A86320B90B4B0C484221FDF751FD0B491B
:1082DC000B4BC0E900130B4B83600B2383810021F4
:1082EC000120C2E90401AB6B00221C615A6138BD4C
:1082FC0064E5032069950B0080950B000E33CDAB24
:10830C0034126DE6ECDE0500034611F8012B03F880
:10831C00012B002AF9D1704710B50139034632B14F
:10832C0011F8014F03F8014B013A002CF7D11A4414
:10833C000021934200D110BD03F8011BF9E710B5E1
:10834C00024601448A42134603D01C780132002CA9
:10835C00F8D1181A10BD0000012B2DE9F04701D0FF
:10836C00242B06D9FDF7FCFC162303600020BDE886
:10837C00F087DFF8E4C00D462E4615F8014B14F8D3
:10838C000C7017F00807F7D12D2C32D12C7801275F
:10839C00B51C002B5BD0102B09D1302C07D12C78BD
:1083AC0004F0DF04582C4DD16C781023023507F102
:1083BC00004808F1FF384FF0000CB8FBF3F96646A3
:1083CC0003FB198AA4F1300EBEF1090F16D87446BE
:1083DC00A34224DDBCF1000F1EDBB1451CD301D13F
:1083EC00A24519DB06FB03464FF0010C15F8014BB7
:1083FC00E8E72B2C04BF2C78B51CCAE7A4F1410E7E
:10840C00BEF1190F01D8373CE2E7A4F1610EBEF1C1
:10841C00190F04D8573CDBE74FF0FF3CE6E7BCF103
:10842C00000F05DA22230360464642B930469EE728
:10843C0007B17642002AF9D0BCF1000F00D0691EBA
:10844C001160F3E73024002BB1D10823AFE7302CB7
:10845C00A5D00A23ABE700BFDA950B0013460A46FA
:10846C00014602480068FFF777BF00BF64E50320B0
:10847C002DE9F843DFF8B8800646D8F800001F460F
:10848C000D46914600F056F8254B1C6834B9254C26
:10849C001C60254B13B11B68C4F8883063681F2B14
:1084AC0007DDD8F8000000F047F84FF0FF30BDE8CA
:1084BC00F8834EB3D4F8880088B91C4B23B9D8F88C
:1084CC00000000F038F8F0E74FF48470FDF720FC62
:1084DC000028F4D00023C0E94033C4F88800636856
:1084EC0040F8239001229A4000EB8301D0F8003130
:1084FC001343C0F80031022EC1F8807002BFD0F8CF
:10850C0004311343C0F804316368D8F800005A1CD6
:10851C000233626044F8235000F00EF80020C6E7E6
:10852C00E8E703205CE70320000000001D5D0B0062
:10853C00C8E503207047704770470000000000003A
:10854C000000FB349B5F80000080001000000000E6
:10855C000000000041400B007D400B00A5400B00CB
:10856C00A9400B000000000043616C6C206F6E2072
:10857C0070757265207669727475616C00436F6EEC
:10858C006E65637465642E0050686F6E652062754D
:10859C0074746F6E20707573686564210052656D1C
:1085AC00790036453430303030312D423541332D61
:1085BC00463339332D453041392D4535304532342C
:1085CC004443434139450036453430303030322D48
:1085DC00423541332D463339332D453041392D4504
:1085EC003530453234444343413945003645343007
:1085FC00303030332D423541332D463339332D4510
:10860C003041392D453530453234444343413945A9
:10861C000072780074780000000000003E5B4F5B35
:10862C003E3E6B4F6B3E1C3E7C3E1C183C7E3C1809
:10863C001C577D571C1C5E7F5E1C00183C1800FFED
:10864C00E7C3E7FF0018241800FFE7DBE7FF30481B
:10865C003A060E2629792926407F050507407F0515
:10866C00253F5A3CE73C5A7F3E1C1C08081C1C3E0C
:10867C007F14227F22145F5F005F5F06097F017FFA
:10868C00006689956A606060606094A2FFA294089D
:10869C00047E040810207E201008082A1C08081CE0
:1086AC002A08081E101010100C1E0C1E0C30383E20
:1086BC003830060E3E0E06000000000000005F0081
:1086CC00000007000700147F147F14242A7F2A124D
:1086DC002313086462364956205000080703000033
:1086EC001C2241000041221C002A1C7F1C2A080865
:1086FC003E08080080703000080808080800006078
:10870C00600020100804023E5149453E00427F4063
:10871C000072494949462141494D331814127F10C2
:10872C0027454545393C4A4949314121110907360C
:10873C0049494936464949291E00001400000040A9
:10874C0034000000081422411414141414004122A3
:10875C00140802015909063E415D594E7C12111252
:10876C007C7F494949363E414141227F4141413E4E
:10877C007F494949417F090909013E414151737FB4
:10878C000808087F00417F41002040413F017F08DD
:10879C001422417F404040407F021C027F7F04082E
:1087AC00107F3E4141413E7F090909063E4151215E
:1087BC005E7F09192946264949493203017F010385
:1087CC003F4040403F1F2040201F3F4038403F6308
:1087DC001408146303047804036159494D43007F62
:1087EC004141410204081020004141417F04020133
:1087FC0002044040404040000307080020545478D5
:10880C00407F284444383844444428384444287F22
:10881C00385454541800087E090218A4A49C787F7C
:10882C000804047800447D40002040403D007F1047
:10883C0028440000417F40007C047804787C0804C4
:10884C0004783844444438FC182424181824241878
:10885C00FC7C08040408485454542404043F442465
:10886C003C4040207C1C2040201C3C4030403C4480
:10887C00281028444C9090907C4464544C4400083C
:10888C00364100000077000000413608000201026A
:10889C0004023C2623263C1EA1A161123A40402032
:1088AC007A385454555921555579412254547842AB
:1088BC00215554784020545579400C1E527212396F
:1088CC005555555939545454593955545458000028
:1088DC00457C410002457D420001457C407D1211E2
:1088EC00127DF0282528F07C545545002054547CEA
:1088FC00547C0A097F4932494949323A4444443A42
:10890C00324A4848303A4141217A3A424020780074
:10891C009DA0A07D3D4242423D3D4040403D3C2417
:10892C00FF2424487E4943662B2FFC2F2BFF09295B
:10893C00F620C0887E090320545479410000447D00
:10894C00413048484A32384040227A007A0A0A724A
:10895C007D0D19317D2629292F28262929292630F4
:10896C00484D4020380808080808080808382F1017
:10897C00C8ACBA2F102834FA00007B000008142A67
:10898C00142222142A14085500550055AA55AA552C
:10899C00AAFF55FF55FF000000FF00101010FF004C
:1089AC00141414FF001010FF00FF1010F010F0143E
:1089BC001414FC001414F700FF0000FF00FF141443
:1089CC00F404FC141417101F10101F101F1414148F
:1089DC001F00101010F0000000001F101010101FCE
:1089EC0010101010F010000000FF101010101010DC
:1089FC00101010FF10000000FF140000FF00FF001B
:108A0C00001F10170000FC04F41414171017141492
:108A1C00F404F40000FF00F714141414141414F7E5
:108A2C0000F7141414171410101F101F141414F43E
:108A3C00141010F010F000001F101F0000001F1485
:108A4C00000000FC140000F010F01010FF10FF14D8
:108A5C001414FF141010101F00000000F010FFFF82
:108A6C00FFFFFFF0F0F0F0F0FFFFFF000000000050
:108A7C00FFFF0F0F0F0F0F3844443844FC4A4A4A8B
:108A8C00347E02020606027E027E02635549416371
:108A9C003844443C04407E201E2006027E0202998B
:108AAC00A5E7A5991C2A492A1C4C7201724C304A24
:108ABC004D4D303048784830BC625A463D3E4949AD
:108ACC0049007E0101017E2A2A2A2A2A44445F4455
:108ADC004440514A444040444A51400000FF010385
:108AEC00E080FF000008086B6B083612362436064F
:108AFC000F090F060000181800000010100030407D
:108B0C00FF0101001F01011E00191D1712003C3C42
:108B1C003C3C0000000000000000000000000000D1
:108B2C000000000000000000214B0B0099750B00A9
:108B3C00C5400B0027450B0029450B005B450B007E
:108B4C0037450B0049450B0069440B0027450B00CA
:108B5C0053470B0051470B0073450B00B1450B00FD
:108B6C00EB450B0031460B004D460B00D1460B007C
:108B7C0064656661756C7420004D5342004C534221
:108B8C00003C53504953657474696E677320646577
:108B9C006661756C743E003C53504953657474693E
:108BAC006E67732025732575202573204D4F444522
:108BBC0025753E0000000000000000005D4C0B001D
:108BCC002F4C0B00314C0B0000000000000180000A
:108BDC000000000000000000038000000000000006
:108BEC0000000007C000000000000000000007C0EB
:108BFC000000000000000000000FC000000000009A
:108C0C00000000001FE00000000000000000001F3A
:108C1C00E00000000000000000003FE00000000049
:108C2C0000000000003FF000000000000000000009
:108C3C007FF0000000000000001FF87FF000000033
:108C4C00000000003FFE7FF0000000000000003F2D
:108C5C00FF7FF0000000000000001FFFFBE00000A1
:108C6C0000000000000FFFF9FFC000000000000032
:108C7C000FFFF9FFF800000000000007FFF1FFFFF5
:108C8C0000000000000003FC73FFFF8000000000E8
:108C9C000001FE3FFFFF80000000000000FF1E0FE0
:108CAC00FF000000000000007FFE1FFC0000000021
:108CBC000000003FFFFFF8000000000000000FDF85
:108CCC00FFE0000000000000001F19FFC0000000C2
:108CDC00000000003F3CFF00000000000000007E90
:108CEC007CF800000000000000007FFE7C0000000B
:108CFC000000000000FFFFFC00000000000000006E
:108D0C00FFFFFE0000000000000000FFFFFE00005F
:108D1C00000000000001FFEFFE000000000000005A
:108D2C0001FFCFFE0000000000000003FF07FE0063
:108D3C0000000000000003FC07FE00000000000023
:108D4C000003F003FE00000000000000018000FEA4
:108D5C00000000000000000000007E000000000089
:108D6C0000000000003E00000000000000000000B9
:108D7C000C000000000000078000FC000003C00095
:108D8C000000078001FC000003C000000007800108
:108D9C00FC000003C0000000078001E00000001E82
:108DAC00000000078001E00000001E007FE3F79F39
:108DBC00F9FDE7787BDFC0FFF7FFBFFDFDFF787B98
:108DCC00DFC0FFF7FFBFFDFDFF787BDFC0F0F7874B
:108DDC00BC3DE1FF787BDE00F0F787BC3DE1F0782D
:108DEC007BDE0000F787803DE1E0787BDE007FF7DB
:108DFC00879FFDE1E0787BDE00FFF787BFFDE1E0B8
:108E0C00787BDE00F0F787BC3DE1E0787BDE00F09C
:108E1C00F787BC3DE1E0787BDE00F0F787BC3DE1F5
:108E2C00E0787BDE00FFF7FFBFFDE1E07FFBDFC0FA
:108E3C00FFF7FFBFFDE1E07FFBDFC07CF3F39F3D5D
:108E4C00E1E03E7BCFC0000000000000000000000D
:108E5C0000FFFFFFFFFFFFFFFFFFFFC0FFFFFFFF54
:108E6C00FD68DB111A31C0FFFFFFFFFD2B5AFB6AB7
:108E7C00EFC0FFFFFFFFFD4B5B3B1A33C0FFFFFF53
:108E8C00FFFD6B5BDB6AFDC00000600000000000B2
:108E9C00000000000000000000E0000000000000E6
:108EAC000000000000000001E000000000000000D5
:108EBC0000000000000001F00000000000000000B5
:108ECC00000000000003F0000000000000000000A3
:108EDC000000000007F0000000000000000000008F
:108EEC0000000007F8000000000000000000000077
:108EFC0000000FF800000003C0007E000001E0003D
:108F0C007F0FF800000003C000FE000001E000FF2E
:108F1C00EFF800000003C000FE000001E000FFFFBE
:108F2C00F800000003C000F00000000F007FFE7F7F
:108F3C00C0000003C000F00000000F003FFE7FF8EF
:108F4C003FF1FBCFFCFEF3BC3DEFE01FFE7FFF7F4C
:108F5C00FBFFDFFEFEFFBC3DEFE01FC6FFFF7FFB0C
:108F6C00FFDFFEFEFFBC3DEFE00FE3C7FE787BC3E7
:108F7C00DE1EF0FFBC3DEF0007FF87FC787BC3DEF5
:108F8C001EF0F83C3DEF0001FFFFF0007BC3C01E5C
:108F9C00F0F03C3DEF0001F37FE03FFBC3CFFEF070
:108FAC00F03C3DEF0003E33F807FFBC3DFFEF0F0BE
:108FBC003C3DEF0007E73C00787BC3DE1EF0F03C45
:108FCC003DEF0007FFBE00787BC3DE1EF0F03C3D9A
:108FDC00EF0007FFFE00787BC3DE1EF0F03C3DEF98
:108FEC00000FFFFE007FFBFFDFFEF0F03FFDEFE028
:108FFC000FFFFF007FFBFFDFFEF0F03FFDEFE00F08
:10900C00F9FF003E79F9CF9EF0F01F3DE7E01FF12C
:10901C00FF0000000000000000000000001F80FFA7
:10902C00007FFFFFFFFFFFFFFFFFFFE01C007F0043
:10903C007FFFFFFFFEB46D888D18E000001F007FDE
:10904C00FFFFFFFE95AD7DB577E000000F007FFFC1
:10905C00FFFFFEA5AD9D8D19E0000006007FFFFF10
:10906C00FFFEB5ADEDB57EE0000000000000000095
:10907C00B14C0B00C94C0B00214B0B0099750B002C
:10908C00DD4C0B0027450B0029450B005B450B0005
:10909C0037450B0049450B0069440B0027450B0075
:1090AC0053470B007B4E0B0023540B00D5530B0086
:1090BC00EB450B0031460B004D460B00D1460B0027
:1090CC000080C0E0F0F8FCFE000103070F1F3F7F9B
:1090DC00AED580A8D300408D2000A1C8DB40A4A64B
:1090EC002EAFDA02818FDA1281DA02812200FF219F
:1090FC0000000000000000000000000049560B00BA
:10910C0069560B00214B0B0099750B00DD4C0B00C5
:10911C0027450B0029450B005B450B0037450B0021
:10912C0049450B0069440B0027450B0053470B00C6
:10913C007B4E0B0023540B00D5530B00EB450B005F
:10914C0031460B004D460B00D1460B004173736545
:10915C007274696F6E4661696C7572652066616CBC
:10916C00736500776972696E672E626C6500537463
:10917C0061727420646973636F766572696E6720BF
:10918C0073657276696365732E00417373657274CF
:10919C00696F6E4661696C7572652068616C5F629F
:1091AC006C655F737461636B5F696E6974286E754F
:1091BC006C6C70747229203D3D2053595354454DAD
:1091CC005F4552524F525F4E4F4E4500506565728F
:1091DC0020646576696365206973206D69737369B2
:1091EC006E6721004661696C656420746F20617044
:1091FC0070656E6420706565722043656E74726173
:10920C006C206465766963652E00436F6E6E6563D2
:10921C0074656400446973636F6E6E656374656432
:10922C00004475706C696361746564206368617275
:10923C00616374657269737469632063616E6E6FC8
:10924C00742062652061646465642E004661696CFB
:10925C00656420746F20617070656E64206C6F6340
:10926C00616C20636861726163746572697374699F
:10927C00632E00000000000000000000A95D0B0040
:10928C000D5E0B00F35E0B00375E0B00AD5D0B004B
:10929C000000000000000000A55D0B001B5E0B0031
:1092AC00A75D0B003D5E0B00CD5D0B0000000000C8
:1092BC0000000000A35D0B00295E0B00D5660B00BF
:1092CC00435E0B00ED5D0B00000000000000000091
:1092DC007BE327747BF815ACDD49A913000072F50C
:1092EC00FB349B5F80000080001000000000000039
:1092FC00000000000000000053720B0049720B00CC
:10930C003F720B0035720B0029720B001D720B00A3
:10931C0075740B007D740B0011720B0009720B003D
:10932C00FF710B00F5710B00AD740B000000000019
:10933C000000000071720B00BB720B0093720B00EB
:10934C0073720B009B720B00A3720B00AB720B00C1
:10935C00B3720B00000000000000000045730B000E
:10936C0035730B0037730B00617070000000000048
:10937C000000000035740B003F740B0049740B00A7
:10938C0053740B005D740B0069740B0075740B0047
:10939C007D740B0085740B0091740B0099740B0099
:1093AC00A3740B00AD740B00000810182028303883
:1093BC0025592D256D2D25645425483A254D3A25E2
:1093CC0053257A0061736374696D650000000000B9
:1093DC0000000000297A0B00957A0B006D7A0B00C7
:1093EC0099750B003D7A0B00597A0B004B7A0B00E8
:1093FC00677A0B002B7A0B002F7A0B000000000011
:10940C0000000000D37A0B003B7B0B00117B0B00A0
:10941C0099750B00037B0B00D57A0B00E57A0B00DA
:10942C00357B0B00F57A0B00CD7A0B0000000000A9
:10943C0000000000337C0B00297C0B001F7C0B0010
:10944C00D57B0B00137C0B00077C0B0075740B0099
:10945C007D740B00FB7B0B00F37B0B00E97B0B009B
:10946C00DF7B0B00AD740B0000537431395F53700C
:10947C005F6D616B655F7368617265645F74616772
:10948C0000000000D0940B0075940B0030950B007D
:10949C00A4940B0054950B004E31305F5F637878C9
:1094AC00616269763131375F5F636C6173735F74CE
:1094BC007970655F696E666F450000000000000002
:1094CC0098940B004D800B0061800B00F5810B0014
:1094DC00F5810B00CB800B000D800B00B3800B00D3
:1094EC0075800B003F800B0030950B0000950B0036
:1094FC0098940B004E31305F5F63787861626976C7
:10950C003132305F5F73695F636C6173735F747961
:10951C0070655F696E666F4500000000000000001A
:10952C00F4940B00F5800B0009810B00F5810B0006
:10953C00F5810B00CB800B000D800B00C9810B005B
:10954C0055810B001D810B00D0940B005C950B001A
:10955C00537439747970655F696E666F0052454556
:10956C004E54206D616C6C6F63207375636365651D
:10957C00646564002F746D702F6A656E6B696E7311
:10958C002D4743432D31302D706970656C696E65C4
:10959C002D34385F32303230313132345F31363045
:1095AC00363138303633392F7372632F6E65776CE2
:1095BC0069622F6E65776C69622F6C6962632F73B9
:1095CC0074646C69622F72616E642E6300002020DB
:1095DC002020202020202028282828282020202057
:1095EC002020202020202020202020202020881017
:1095FC001010101010101010101010101010040477
:10960C00040404040404040410101010101010417D
:10961C0041414141410101010101010101010101EE
:10962C000101010101010101011010101010104283
:10963C0042424242420202020202020202020202BE
:10964C00020202020202020202101010102000009C
:10965C0000000000000000000000000000000000FE
:10966C0000000000000000000000000000000000EE
:10967C0000000000000000000000000000000000DE
:10968C0000000000000000000000000000000000CE
:10969C0000000000000000000000000000000000BE
:1096AC0000000000000000000000000000000000AE
:1096BC00000000000000000000000000000000009E
:1096CC00000000000000000000000000000000008E
:1096DC001D430B00E5710B005D720B0025740B0034
:1096EC0085750B00F5760B00F1790B00157A0B00E4
:0496FC003D7C0B00A6
:10970000040000001400000003000000474E550054
:1097100094D0A968C4A58BC909AC2C525408166B07
:04972000EF4AE09696
:10972400D0930B0068E50320000000000000000057
:109734000000000000000000000000000000000025
:109744000000000000000000000000000000000015
:109754000000000000000000000000000000000005
:1097640000000000000000000000000000000000F5
:1097740000000000000000000000000000000000E5
:0C9784000000000000000000ECE70320E3
:0497900000000000D5
:10979A0000000102030405060708090A0B0C0D0E56
:1097AA000F101112131415161718191A1B1C1D1E47
:0497BA001F20280044
:0497BE007856341293
:04000003B000401CED
:00000001FF
